{
  "_format": "hh-sol-artifact-1",
  "contractName": "Feedback",
  "sourceName": "contracts/Feedback.sol",
  "abi": [
    {
      "inputs": [],
      "stateMutability": "nonpayable",
      "type": "constructor"
    },
    {
      "inputs": [
        {
          "internalType": "address",
          "name": "user",
          "type": "address"
        }
      ],
      "name": "checkCreator",
      "outputs": [
        {
          "internalType": "bool",
          "name": "",
          "type": "bool"
        }
      ],
      "stateMutability": "view",
      "type": "function"
    },
    {
      "inputs": [
        {
          "internalType": "uint256",
          "name": "suggestionId",
          "type": "uint256"
        },
        {
          "internalType": "string",
          "name": "content",
          "type": "string"
        }
      ],
      "name": "commentSuggestion",
      "outputs": [],
      "stateMutability": "nonpayable",
      "type": "function"
    },
    {
      "inputs": [
        {
          "internalType": "uint256",
          "name": "",
          "type": "uint256"
        }
      ],
      "name": "comments",
      "outputs": [
        {
          "internalType": "uint256",
          "name": "commentId",
          "type": "uint256"
        },
        {
          "internalType": "uint256",
          "name": "suggestionId",
          "type": "uint256"
        },
        {
          "internalType": "address",
          "name": "author",
          "type": "address"
        },
        {
          "internalType": "string",
          "name": "content",
          "type": "string"
        },
        {
          "internalType": "uint256",
          "name": "createdAt",
          "type": "uint256"
        }
      ],
      "stateMutability": "view",
      "type": "function"
    },
    {
      "inputs": [
        {
          "internalType": "string",
          "name": "title",
          "type": "string"
        },
        {
          "internalType": "string",
          "name": "content",
          "type": "string"
        }
      ],
      "name": "createSuggestion",
      "outputs": [],
      "stateMutability": "nonpayable",
      "type": "function"
    },
    {
      "inputs": [
        {
          "internalType": "address",
          "name": "",
          "type": "address"
        }
      ],
      "name": "creators",
      "outputs": [
        {
          "internalType": "bool",
          "name": "",
          "type": "bool"
        }
      ],
      "stateMutability": "view",
      "type": "function"
    },
    {
      "inputs": [
        {
          "internalType": "uint256",
          "name": "suggestionId",
          "type": "uint256"
        }
      ],
      "name": "deleteSuggestion",
      "outputs": [],
      "stateMutability": "nonpayable",
      "type": "function"
    },
    {
      "inputs": [
        {
          "internalType": "uint256",
          "name": "suggestionId",
          "type": "uint256"
        }
      ],
      "name": "getSuggestionComments",
      "outputs": [
        {
          "components": [
            {
              "internalType": "uint256",
              "name": "commentId",
              "type": "uint256"
            },
            {
              "internalType": "uint256",
              "name": "suggestionId",
              "type": "uint256"
            },
            {
              "internalType": "address",
              "name": "author",
              "type": "address"
            },
            {
              "internalType": "string",
              "name": "content",
              "type": "string"
            },
            {
              "internalType": "uint256",
              "name": "createdAt",
              "type": "uint256"
            }
          ],
          "internalType": "struct Feedback.Comment[]",
          "name": "",
          "type": "tuple[]"
        }
      ],
      "stateMutability": "view",
      "type": "function"
    },
    {
      "inputs": [],
      "name": "getSuggestions",
      "outputs": [
        {
          "components": [
            {
              "internalType": "uint256",
              "name": "suggestionId",
              "type": "uint256"
            },
            {
              "internalType": "address",
              "name": "author",
              "type": "address"
            },
            {
              "internalType": "string",
              "name": "title",
              "type": "string"
            },
            {
              "internalType": "string",
              "name": "content",
              "type": "string"
            },
            {
              "internalType": "uint256",
              "name": "createdAt",
              "type": "uint256"
            },
            {
              "internalType": "int256",
              "name": "votes",
              "type": "int256"
            },
            {
              "internalType": "uint256[]",
              "name": "comments",
              "type": "uint256[]"
            }
          ],
          "internalType": "struct Feedback.Suggestion[]",
          "name": "",
          "type": "tuple[]"
        }
      ],
      "stateMutability": "view",
      "type": "function"
    },
    {
      "inputs": [],
      "name": "owner",
      "outputs": [
        {
          "internalType": "address",
          "name": "",
          "type": "address"
        }
      ],
      "stateMutability": "view",
      "type": "function"
    },
    {
      "inputs": [
        {
          "internalType": "address",
          "name": "user",
          "type": "address"
        }
      ],
      "name": "setCreator",
      "outputs": [],
      "stateMutability": "nonpayable",
      "type": "function"
    },
    {
      "inputs": [
        {
          "internalType": "uint256",
          "name": "",
          "type": "uint256"
        }
      ],
      "name": "suggestions",
      "outputs": [
        {
          "internalType": "uint256",
          "name": "suggestionId",
          "type": "uint256"
        },
        {
          "internalType": "address",
          "name": "author",
          "type": "address"
        },
        {
          "internalType": "string",
          "name": "title",
          "type": "string"
        },
        {
          "internalType": "string",
          "name": "content",
          "type": "string"
        },
        {
          "internalType": "uint256",
          "name": "createdAt",
          "type": "uint256"
        },
        {
          "internalType": "int256",
          "name": "votes",
          "type": "int256"
        }
      ],
      "stateMutability": "view",
      "type": "function"
    },
    {
      "inputs": [
        {
          "internalType": "int256",
          "name": "vote",
          "type": "int256"
        },
        {
          "internalType": "uint256",
          "name": "suggestionId",
          "type": "uint256"
        }
      ],
      "name": "voteForSuggestion",
      "outputs": [],
      "stateMutability": "nonpayable",
      "type": "function"
    },
    {
      "inputs": [
        {
          "internalType": "uint256",
          "name": "",
          "type": "uint256"
        },
        {
          "internalType": "address",
          "name": "",
          "type": "address"
        }
      ],
      "name": "votedSuggestions",
      "outputs": [
        {
          "internalType": "int256",
          "name": "",
          "type": "int256"
        }
      ],
      "stateMutability": "view",
      "type": "function"
    }
  ],
  "bytecode": "0x6080604052348015600f57600080fd5b50336000806101000a81548173ffffffffffffffffffffffffffffffffffffffff021916908373ffffffffffffffffffffffffffffffffffffffff16021790555060018060003373ffffffffffffffffffffffffffffffffffffffff1673ffffffffffffffffffffffffffffffffffffffff16815260200190815260200160002060006101000a81548160ff02191690831515021790555061269c806100b66000396000f3fe608060405234801561001057600080fd5b50600436106100cf5760003560e01c80638da5cb5b1161008c578063bc14232011610066578063bc14232014610241578063bd1bdd041461025d578063da7344ff1461028d578063f1deb2c3146102a9576100cf565b80638da5cb5b146101bf5780638ebb4c15146101dd578063933166e114610211576100cf565b8063110effb6146100d45780632d4f7ad5146100f2578063302a2a461461010e5780633f516018146101435780634343ff7a1461015f5780634ac342d31461018f575b600080fd5b6100dc6102c5565b6040516100e99190611968565b60405180910390f35b61010c600480360381019061010791906119c0565b61057b565b005b610128600480360381019061012391906119c0565b6106e2565b60405161013a96959493929190611a64565b60405180910390f35b61015d60048036038101906101589190611aff565b61084e565b005b61017960048036038101906101749190611b2c565b610936565b6040516101869190611b6c565b60405180910390f35b6101a960048036038101906101a491906119c0565b61095b565b6040516101b69190611cbf565b60405180910390f35b6101c7610bf0565b6040516101d49190611ce1565b60405180910390f35b6101f760048036038101906101f291906119c0565b610c14565b604051610208959493929190611cfc565b60405180910390f35b61022b60048036038101906102269190611aff565b610cf2565b6040516102389190611d71565b60405180910390f35b61025b60048036038101906102569190611db8565b610d12565b005b61027760048036038101906102729190611aff565b610fb5565b6040516102849190611d71565b60405180910390f35b6102a760048036038101906102a29190611e5d565b61100b565b005b6102c360048036038101906102be9190611ede565b611324565b005b6060600060025467ffffffffffffffff8111156102e5576102e4611f3e565b5b60405190808252806020026020018201604052801561031e57816020015b61030b6114e7565b8152602001906001900390816103035790505b50905060005b600254811015610573576003600060018361033f9190611f9c565b81526020019081526020016000206040518060e0016040529081600082015481526020016001820160009054906101000a900473ffffffffffffffffffffffffffffffffffffffff1673ffffffffffffffffffffffffffffffffffffffff1673ffffffffffffffffffffffffffffffffffffffff1681526020016002820180546103c890611fff565b80601f01602080910402602001604051908101604052809291908181526020018280546103f490611fff565b80156104415780601f1061041657610100808354040283529160200191610441565b820191906000526020600020905b81548152906001019060200180831161042457829003601f168201915b5050505050815260200160038201805461045a90611fff565b80601f016020809104026020016040519081016040528092919081815260200182805461048690611fff565b80156104d35780601f106104a8576101008083540402835291602001916104d3565b820191906000526020600020905b8154815290600101906020018083116104b657829003601f168201915b5050505050815260200160048201548152602001600582015481526020016006820180548060200260200160405190810160405280929190818152602001828054801561053f57602002820191906000526020600020905b81548152602001906001019080831161052b575b50505050508152505082828151811061055b5761055a612030565b5b60200260200101819052508080600101915050610324565b508091505090565b60008054906101000a900473ffffffffffffffffffffffffffffffffffffffff1673ffffffffffffffffffffffffffffffffffffffff163373ffffffffffffffffffffffffffffffffffffffff1614610609576040517f08c379a0000000000000000000000000000000000000000000000000000000008152600401610600906120ab565b60405180910390fd5b60008111801561061b57506002548111155b61065a576040517f08c379a000000000000000000000000000000000000000000000000000000000815260040161065190612117565b60405180910390fd5b600360008281526020019081526020016000206000808201600090556001820160006101000a81549073ffffffffffffffffffffffffffffffffffffffff02191690556002820160006106ad919061153a565b6003820160006106bd919061153a565b600482016000905560058201600090556006820160006106dd919061157a565b505050565b60036020528060005260406000206000915090508060000154908060010160009054906101000a900473ffffffffffffffffffffffffffffffffffffffff169080600201805461073190611fff565b80601f016020809104026020016040519081016040528092919081815260200182805461075d90611fff565b80156107aa5780601f1061077f576101008083540402835291602001916107aa565b820191906000526020600020905b81548152906001019060200180831161078d57829003601f168201915b5050505050908060030180546107bf90611fff565b80601f01602080910402602001604051908101604052809291908181526020018280546107eb90611fff565b80156108385780601f1061080d57610100808354040283529160200191610838565b820191906000526020600020905b81548152906001019060200180831161081b57829003601f168201915b5050505050908060040154908060050154905086565b60008054906101000a900473ffffffffffffffffffffffffffffffffffffffff1673ffffffffffffffffffffffffffffffffffffffff163373ffffffffffffffffffffffffffffffffffffffff16146108dc576040517f08c379a00000000000000000000000000000000000000000000000000000000081526004016108d3906120ab565b60405180910390fd5b60018060008373ffffffffffffffffffffffffffffffffffffffff1673ffffffffffffffffffffffffffffffffffffffff16815260200190815260200160002060006101000a81548160ff02191690831515021790555050565b6006602052816000526040600020602052806000526040600020600091509150505481565b606060008211801561096f57506002548211155b6109ae576040517f08c379a00000000000000000000000000000000000000000000000000000000081526004016109a590612117565b60405180910390fd5b600060036000848152602001908152602001600020600601805480602002602001604051908101604052809291908181526020018280548015610a1057602002820191906000526020600020905b8154815260200190600101908083116109fc575b505050505090506000815167ffffffffffffffff811115610a3457610a33611f3e565b5b604051908082528060200260200182016040528015610a6d57816020015b610a5a61159b565b815260200190600190039081610a525790505b50905060005b8251811015610be55760056000848381518110610a9357610a92612030565b5b602002602001015181526020019081526020016000206040518060a001604052908160008201548152602001600182015481526020016002820160009054906101000a900473ffffffffffffffffffffffffffffffffffffffff1673ffffffffffffffffffffffffffffffffffffffff1673ffffffffffffffffffffffffffffffffffffffff168152602001600382018054610b2e90611fff565b80601f0160208091040260200160405190810160405280929190818152602001828054610b5a90611fff565b8015610ba75780601f10610b7c57610100808354040283529160200191610ba7565b820191906000526020600020905b815481529060010190602001808311610b8a57829003601f168201915b50505050508152602001600482015481525050828281518110610bcd57610bcc612030565b5b60200260200101819052508080600101915050610a73565b508092505050919050565b60008054906101000a900473ffffffffffffffffffffffffffffffffffffffff1681565b60056020528060005260406000206000915090508060000154908060010154908060020160009054906101000a900473ffffffffffffffffffffffffffffffffffffffff1690806003018054610c6990611fff565b80601f0160208091040260200160405190810160405280929190818152602001828054610c9590611fff565b8015610ce25780601f10610cb757610100808354040283529160200191610ce2565b820191906000526020600020905b815481529060010190602001808311610cc557829003601f168201915b5050505050908060040154905085565b60016020528060005260406000206000915054906101000a900460ff1681565b600081118015610d2457506002548111155b610d63576040517f08c379a0000000000000000000000000000000000000000000000000000000008152600401610d5a90612117565b60405180910390fd5b816006600083815260200190815260200160002060003373ffffffffffffffffffffffffffffffffffffffff1673ffffffffffffffffffffffffffffffffffffffff1681526020019081526020016000205403610e425781600360008381526020019081526020016000206005016000828254610de09190612137565b9250508190555060006006600083815260200190815260200160002060003373ffffffffffffffffffffffffffffffffffffffff1673ffffffffffffffffffffffffffffffffffffffff16815260200190815260200160002081905550610fb1565b60006006600083815260200190815260200160002060003373ffffffffffffffffffffffffffffffffffffffff1673ffffffffffffffffffffffffffffffffffffffff1681526020019081526020016000205403610f215781600360008381526020019081526020016000206005016000828254610ec0919061217a565b92505081905550816006600083815260200190815260200160002060003373ffffffffffffffffffffffffffffffffffffffff1673ffffffffffffffffffffffffffffffffffffffff16815260200190815260200160002081905550610fb0565b600282610f2e91906121be565b600360008381526020019081526020016000206005016000828254610f53919061217a565b92505081905550816006600083815260200190815260200160002060003373ffffffffffffffffffffffffffffffffffffffff1673ffffffffffffffffffffffffffffffffffffffff168152602001908152602001600020819055505b5b5050565b6000600160008373ffffffffffffffffffffffffffffffffffffffff1673ffffffffffffffffffffffffffffffffffffffff16815260200190815260200160002060009054906101000a900460ff169050919050565b600160003373ffffffffffffffffffffffffffffffffffffffff1673ffffffffffffffffffffffffffffffffffffffff16815260200190815260200160002060009054906101000a900460ff16611097576040517f08c379a000000000000000000000000000000000000000000000000000000000815260040161108e90612282565b60405180910390fd5b600084849050116110dd576040517f08c379a00000000000000000000000000000000000000000000000000000000081526004016110d4906122ee565b60405180910390fd5b60008282905011611123576040517f08c379a000000000000000000000000000000000000000000000000000000000815260040161111a90612380565b60405180910390fd5b60026000815480929190611136906123a0565b91905055506040518060e0016040528060025481526020013373ffffffffffffffffffffffffffffffffffffffff16815260200185858080601f016020809104026020016040519081016040528093929190818152602001838380828437600081840152601f19601f82011690508083019250505050505050815260200183838080601f016020809104026020016040519081016040528093929190818152602001838380828437600081840152601f19601f82011690508083019250505050505050815260200142815260200160008152602001600067ffffffffffffffff81111561122657611225611f3e565b5b6040519080825280602002602001820160405280156112545781602001602082028036833780820191505090505b508152506003600060025481526020019081526020016000206000820151816000015560208201518160010160006101000a81548173ffffffffffffffffffffffffffffffffffffffff021916908373ffffffffffffffffffffffffffffffffffffffff16021790555060408201518160020190816112d39190612594565b5060608201518160030190816112e99190612594565b506080820151816004015560a0820151816005015560c082015181600601908051906020019061131a9291906115e0565b5090505050505050565b60008311801561133657506002548311155b611375576040517f08c379a000000000000000000000000000000000000000000000000000000000815260040161136c90612117565b60405180910390fd5b60046000815480929190611388906123a0565b91905055506040518060a0016040528060045481526020018481526020013373ffffffffffffffffffffffffffffffffffffffff16815260200183838080601f016020809104026020016040519081016040528093929190818152602001838380828437600081840152601f19601f82011690508083019250505050505050815260200142815250600560006004548152602001908152602001600020600082015181600001556020820151816001015560408201518160020160006101000a81548173ffffffffffffffffffffffffffffffffffffffff021916908373ffffffffffffffffffffffffffffffffffffffff16021790555060608201518160030190816114959190612594565b5060808201518160040155905050600360008481526020019081526020016000206006016004549080600181540180825580915050600190039060005260206000200160009091909190915055505050565b6040518060e0016040528060008152602001600073ffffffffffffffffffffffffffffffffffffffff16815260200160608152602001606081526020016000815260200160008152602001606081525090565b50805461154690611fff565b6000825580601f106115585750611577565b601f016020900490600052602060002090810190611576919061162d565b5b50565b5080546000825590600052602060002090810190611598919061162d565b50565b6040518060a001604052806000815260200160008152602001600073ffffffffffffffffffffffffffffffffffffffff16815260200160608152602001600081525090565b82805482825590600052602060002090810192821561161c579160200282015b8281111561161b578251825591602001919060010190611600565b5b509050611629919061162d565b5090565b5b8082111561164657600081600090555060010161162e565b5090565b600081519050919050565b600082825260208201905092915050565b6000819050602082019050919050565b6000819050919050565b61168981611676565b82525050565b600073ffffffffffffffffffffffffffffffffffffffff82169050919050565b60006116ba8261168f565b9050919050565b6116ca816116af565b82525050565b600081519050919050565b600082825260208201905092915050565b60005b8381101561170a5780820151818401526020810190506116ef565b60008484015250505050565b6000601f19601f8301169050919050565b6000611732826116d0565b61173c81856116db565b935061174c8185602086016116ec565b61175581611716565b840191505092915050565b6000819050919050565b61177381611760565b82525050565b600081519050919050565b600082825260208201905092915050565b6000819050602082019050919050565b60006117b18383611680565b60208301905092915050565b6000602082019050919050565b60006117d582611779565b6117df8185611784565b93506117ea83611795565b8060005b8381101561181b57815161180288826117a5565b975061180d836117bd565b9250506001810190506117ee565b5085935050505092915050565b600060e0830160008301516118406000860182611680565b50602083015161185360208601826116c1565b506040830151848203604086015261186b8282611727565b915050606083015184820360608601526118858282611727565b915050608083015161189a6080860182611680565b5060a08301516118ad60a086018261176a565b5060c083015184820360c08601526118c582826117ca565b9150508091505092915050565b60006118de8383611828565b905092915050565b6000602082019050919050565b60006118fe8261164a565b6119088185611655565b93508360208202850161191a85611666565b8060005b85811015611956578484038952815161193785826118d2565b9450611942836118e6565b925060208a0199505060018101905061191e565b50829750879550505050505092915050565b6000602082019050818103600083015261198281846118f3565b905092915050565b600080fd5b600080fd5b61199d81611676565b81146119a857600080fd5b50565b6000813590506119ba81611994565b92915050565b6000602082840312156119d6576119d561198a565b5b60006119e4848285016119ab565b91505092915050565b6119f681611676565b82525050565b611a05816116af565b82525050565b600082825260208201905092915050565b6000611a27826116d0565b611a318185611a0b565b9350611a418185602086016116ec565b611a4a81611716565b840191505092915050565b611a5e81611760565b82525050565b600060c082019050611a7960008301896119ed565b611a8660208301886119fc565b8181036040830152611a988187611a1c565b90508181036060830152611aac8186611a1c565b9050611abb60808301856119ed565b611ac860a0830184611a55565b979650505050505050565b611adc816116af565b8114611ae757600080fd5b50565b600081359050611af981611ad3565b92915050565b600060208284031215611b1557611b1461198a565b5b6000611b2384828501611aea565b91505092915050565b60008060408385031215611b4357611b4261198a565b5b6000611b51858286016119ab565b9250506020611b6285828601611aea565b9150509250929050565b6000602082019050611b816000830184611a55565b92915050565b600081519050919050565b600082825260208201905092915050565b6000819050602082019050919050565b600060a083016000830151611bcb6000860182611680565b506020830151611bde6020860182611680565b506040830151611bf160408601826116c1565b5060608301518482036060860152611c098282611727565b9150506080830151611c1e6080860182611680565b508091505092915050565b6000611c358383611bb3565b905092915050565b6000602082019050919050565b6000611c5582611b87565b611c5f8185611b92565b935083602082028501611c7185611ba3565b8060005b85811015611cad5784840389528151611c8e8582611c29565b9450611c9983611c3d565b925060208a01995050600181019050611c75565b50829750879550505050505092915050565b60006020820190508181036000830152611cd98184611c4a565b905092915050565b6000602082019050611cf660008301846119fc565b92915050565b600060a082019050611d1160008301886119ed565b611d1e60208301876119ed565b611d2b60408301866119fc565b8181036060830152611d3d8185611a1c565b9050611d4c60808301846119ed565b9695505050505050565b60008115159050919050565b611d6b81611d56565b82525050565b6000602082019050611d866000830184611d62565b92915050565b611d9581611760565b8114611da057600080fd5b50565b600081359050611db281611d8c565b92915050565b60008060408385031215611dcf57611dce61198a565b5b6000611ddd85828601611da3565b9250506020611dee858286016119ab565b9150509250929050565b600080fd5b600080fd5b600080fd5b60008083601f840112611e1d57611e1c611df8565b5b8235905067ffffffffffffffff811115611e3a57611e39611dfd565b5b602083019150836001820283011115611e5657611e55611e02565b5b9250929050565b60008060008060408587031215611e7757611e7661198a565b5b600085013567ffffffffffffffff811115611e9557611e9461198f565b5b611ea187828801611e07565b9450945050602085013567ffffffffffffffff811115611ec457611ec361198f565b5b611ed087828801611e07565b925092505092959194509250565b600080600060408486031215611ef757611ef661198a565b5b6000611f05868287016119ab565b935050602084013567ffffffffffffffff811115611f2657611f2561198f565b5b611f3286828701611e07565b92509250509250925092565b7f4e487b7100000000000000000000000000000000000000000000000000000000600052604160045260246000fd5b7f4e487b7100000000000000000000000000000000000000000000000000000000600052601160045260246000fd5b6000611fa782611676565b9150611fb283611676565b9250828201905080821115611fca57611fc9611f6d565b5b92915050565b7f4e487b7100000000000000000000000000000000000000000000000000000000600052602260045260246000fd5b6000600282049050600182168061201757607f821691505b60208210810361202a57612029611fd0565b5b50919050565b7f4e487b7100000000000000000000000000000000000000000000000000000000600052603260045260246000fd5b7f596f7520617265206e6f7420636f6e7472616374206f776e6572000000000000600082015250565b6000612095601a83611a0b565b91506120a08261205f565b602082019050919050565b600060208201905081810360008301526120c481612088565b9050919050565b7f53756767657374696f6e20646f65736e27742065786973740000000000000000600082015250565b6000612101601883611a0b565b915061210c826120cb565b602082019050919050565b60006020820190508181036000830152612130816120f4565b9050919050565b600061214282611760565b915061214d83611760565b925082820390508181126000841216828213600085121516171561217457612173611f6d565b5b92915050565b600061218582611760565b915061219083611760565b9250828201905082811215600083121683821260008412151617156121b8576121b7611f6d565b5b92915050565b60006121c982611760565b91506121d483611760565b92508282026121e281611760565b91507f8000000000000000000000000000000000000000000000000000000000000000841460008412161561221a57612219611f6d565b5b828205841483151761222f5761222e611f6d565b5b5092915050565b7f596f7520617265206e6f742063726561746f7200000000000000000000000000600082015250565b600061226c601383611a0b565b915061227782612236565b602082019050919050565b6000602082019050818103600083015261229b8161225f565b9050919050565b7f5469746c652063616e6e6f7420626520616e20656d70747920737472696e6700600082015250565b60006122d8601f83611a0b565b91506122e3826122a2565b602082019050919050565b60006020820190508181036000830152612307816122cb565b9050919050565b7f436f6e74656e742063616e6e6f7420626520616e20656d70747920737472696e60008201527f6700000000000000000000000000000000000000000000000000000000000000602082015250565b600061236a602183611a0b565b91506123758261230e565b604082019050919050565b600060208201905081810360008301526123998161235d565b9050919050565b60006123ab82611676565b91507fffffffffffffffffffffffffffffffffffffffffffffffffffffffffffffffff82036123dd576123dc611f6d565b5b600182019050919050565b60008190508160005260206000209050919050565b60006020601f8301049050919050565b600082821b905092915050565b60006008830261244a7fffffffffffffffffffffffffffffffffffffffffffffffffffffffffffffffff8261240d565b612454868361240d565b95508019841693508086168417925050509392505050565b6000819050919050565b600061249161248c61248784611676565b61246c565b611676565b9050919050565b6000819050919050565b6124ab83612476565b6124bf6124b782612498565b84845461241a565b825550505050565b600090565b6124d46124c7565b6124df8184846124a2565b505050565b5b81811015612503576124f86000826124cc565b6001810190506124e5565b5050565b601f82111561254857612519816123e8565b612522846123fd565b81016020851015612531578190505b61254561253d856123fd565b8301826124e4565b50505b505050565b600082821c905092915050565b600061256b6000198460080261254d565b1980831691505092915050565b6000612584838361255a565b9150826002028217905092915050565b61259d826116d0565b67ffffffffffffffff8111156125b6576125b5611f3e565b5b6125c08254611fff565b6125cb828285612507565b600060209050601f8311600181146125fe57600084156125ec578287015190505b6125f68582612578565b86555061265e565b601f19841661260c866123e8565b60005b828110156126345784890151825560018201915060208501945060208101905061260f565b86831015612651578489015161264d601f89168261255a565b8355505b6001600288020188555050505b50505050505056fea2646970667358221220fb06194e10f355faa012cbf353c8567c1a02d8ebc575cd48fe89fe3f6ac64b4764736f6c634300081b0033",
  "linkReferences": {},
  "deployedLinkReferences": {}
}