{
  "_format": "hh-sol-artifact-1",
  "contractName": "Vendor",
  "sourceName": "contracts/Vendor.sol",
  "abi": [
    {
      "inputs": [
        {
          "internalType": "address",
          "name": "initialOwner",
          "type": "address"
        }
      ],
      "stateMutability": "nonpayable",
      "type": "constructor"
    },
    {
      "inputs": [
        {
          "internalType": "address",
          "name": "owner",
          "type": "address"
        }
      ],
      "name": "OwnableInvalidOwner",
      "type": "error"
    },
    {
      "inputs": [
        {
          "internalType": "address",
          "name": "account",
          "type": "address"
        }
      ],
      "name": "OwnableUnauthorizedAccount",
      "type": "error"
    },
    {
      "anonymous": false,
      "inputs": [
        {
          "indexed": true,
          "internalType": "address",
          "name": "to",
          "type": "address"
        },
        {
          "indexed": false,
          "internalType": "uint256",
          "name": "fefuAmount",
          "type": "uint256"
        },
        {
          "indexed": false,
          "internalType": "uint256",
          "name": "tokensNumber",
          "type": "uint256"
        },
        {
          "indexed": false,
          "internalType": "uint256",
          "name": "tokenPrice",
          "type": "uint256"
        },
        {
          "indexed": false,
          "internalType": "string",
          "name": "tokenName",
          "type": "string"
        },
        {
          "indexed": false,
          "internalType": "string",
          "name": "tokenSymbol",
          "type": "string"
        }
      ],
      "name": "BuyTokens",
      "type": "event"
    },
    {
      "anonymous": false,
      "inputs": [
        {
          "indexed": true,
          "internalType": "address",
          "name": "previousOwner",
          "type": "address"
        },
        {
          "indexed": true,
          "internalType": "address",
          "name": "newOwner",
          "type": "address"
        }
      ],
      "name": "OwnershipTransferred",
      "type": "event"
    },
    {
      "anonymous": false,
      "inputs": [
        {
          "indexed": true,
          "internalType": "address",
          "name": "user",
          "type": "address"
        },
        {
          "indexed": false,
          "internalType": "uint256",
          "name": "tokens",
          "type": "uint256"
        },
        {
          "indexed": false,
          "internalType": "uint256",
          "name": "fefu",
          "type": "uint256"
        }
      ],
      "name": "SellTokens",
      "type": "event"
    },
    {
      "inputs": [
        {
          "internalType": "address",
          "name": "tokenAddress",
          "type": "address"
        },
        {
          "internalType": "uint256",
          "name": "tokenNumber",
          "type": "uint256"
        }
      ],
      "name": "mintTokens",
      "outputs": [],
      "stateMutability": "payable",
      "type": "function"
    },
    {
      "inputs": [],
      "name": "owner",
      "outputs": [
        {
          "internalType": "address",
          "name": "",
          "type": "address"
        }
      ],
      "stateMutability": "view",
      "type": "function"
    },
    {
      "inputs": [],
      "name": "renounceOwnership",
      "outputs": [],
      "stateMutability": "nonpayable",
      "type": "function"
    },
    {
      "inputs": [
        {
          "internalType": "address",
          "name": "tokenAddress",
          "type": "address"
        },
        {
          "internalType": "uint256",
          "name": "tokensToSell",
          "type": "uint256"
        }
      ],
      "name": "sellTokens",
      "outputs": [],
      "stateMutability": "nonpayable",
      "type": "function"
    },
    {
      "inputs": [
        {
          "internalType": "address",
          "name": "newOwner",
          "type": "address"
        }
      ],
      "name": "transferOwnership",
      "outputs": [],
      "stateMutability": "nonpayable",
      "type": "function"
    }
  ],
  "bytecode": "0x608060405234801561001057600080fd5b5060405161162e38038061162e833981810160405281019061003291906101e2565b80600073ffffffffffffffffffffffffffffffffffffffff168173ffffffffffffffffffffffffffffffffffffffff16036100a55760006040517f1e4fbdf700000000000000000000000000000000000000000000000000000000815260040161009c919061021e565b60405180910390fd5b6100b4816100bb60201b60201c565b5050610239565b60008060009054906101000a900473ffffffffffffffffffffffffffffffffffffffff169050816000806101000a81548173ffffffffffffffffffffffffffffffffffffffff021916908373ffffffffffffffffffffffffffffffffffffffff1602179055508173ffffffffffffffffffffffffffffffffffffffff168173ffffffffffffffffffffffffffffffffffffffff167f8be0079c531659141344cd1fd0a4f28419497f9722a3daafe3b4186f6b6457e060405160405180910390a35050565b600080fd5b600073ffffffffffffffffffffffffffffffffffffffff82169050919050565b60006101af82610184565b9050919050565b6101bf816101a4565b81146101ca57600080fd5b50565b6000815190506101dc816101b6565b92915050565b6000602082840312156101f8576101f761017f565b5b6000610206848285016101cd565b91505092915050565b610218816101a4565b82525050565b6000602082019050610233600083018461020f565b92915050565b6113e6806102486000396000f3fe60806040526004361061004a5760003560e01c8063715018a61461004f5780638da5cb5b14610066578063c464fe6514610091578063f0dda65c146100ba578063f2fde38b146100d6575b600080fd5b34801561005b57600080fd5b506100646100ff565b005b34801561007257600080fd5b5061007b610113565b6040516100889190610a2a565b60405180910390f35b34801561009d57600080fd5b506100b860048036038101906100b39190610abb565b61013c565b005b6100d460048036038101906100cf9190610abb565b6104a7565b005b3480156100e257600080fd5b506100fd60048036038101906100f89190610afb565b610810565b005b610107610896565b610111600061091d565b565b60008060009054906101000a900473ffffffffffffffffffffffffffffffffffffffff16905090565b600082905060008211610184576040517f08c379a000000000000000000000000000000000000000000000000000000000815260040161017b90610bab565b60405180910390fd5b818173ffffffffffffffffffffffffffffffffffffffff166370a08231336040518263ffffffff1660e01b81526004016101be9190610a2a565b602060405180830381865afa1580156101db573d6000803e3d6000fd5b505050506040513d601f19601f820116820180604052508101906101ff9190610be0565b1015610240576040517f08c379a000000000000000000000000000000000000000000000000000000000815260040161023790610c59565b60405180910390fd5b6000600160008573ffffffffffffffffffffffffffffffffffffffff1673ffffffffffffffffffffffffffffffffffffffff16815260200190815260200160002054670de0b6b3a7640000846102969190610cd7565b6102a09190610d08565b9050804710156102e5576040517f08c379a00000000000000000000000000000000000000000000000000000000081526004016102dc90610dbc565b60405180910390fd5b8173ffffffffffffffffffffffffffffffffffffffff166323b872dd3330866040518463ffffffff1660e01b815260040161032293929190610deb565b6020604051808303816000875af1158015610341573d6000803e3d6000fd5b505050506040513d601f19601f820116820180604052508101906103659190610e5a565b6103a4576040517f08c379a000000000000000000000000000000000000000000000000000000000815260040161039b90610ef9565b60405180910390fd5b60003373ffffffffffffffffffffffffffffffffffffffff16826040516103ca90610f4a565b60006040518083038185875af1925050503d8060008114610407576040519150601f19603f3d011682016040523d82523d6000602084013e61040c565b606091505b5050905080610450576040517f08c379a000000000000000000000000000000000000000000000000000000000815260040161044790610fab565b60405180910390fd5b3373ffffffffffffffffffffffffffffffffffffffff167fa24838acd4af5195a2396965dae5abf54e84e8c19f5698bb966ae64e29994ee58584604051610498929190610fcb565b60405180910390a25050505050565b6000829050600034116104ef576040517f08c379a00000000000000000000000000000000000000000000000000000000081526004016104e690611040565b60405180910390fd5b818173ffffffffffffffffffffffffffffffffffffffff166370a08231306040518263ffffffff1660e01b81526004016105299190610a2a565b602060405180830381865afa158015610546573d6000803e3d6000fd5b505050506040513d601f19601f8201168201806040525081019061056a9190610be0565b116105aa576040517f08c379a00000000000000000000000000000000000000000000000000000000081526004016105a1906110ac565b60405180910390fd5b600082346105b89190610cd7565b90508173ffffffffffffffffffffffffffffffffffffffff1663a9059cbb33670de0b6b3a7640000866105eb9190610d08565b6040518363ffffffff1660e01b81526004016106089291906110cc565b6020604051808303816000875af1158015610627573d6000803e3d6000fd5b505050506040513d601f19601f8201168201806040525081019061064b9190610e5a565b61068a576040517f08c379a000000000000000000000000000000000000000000000000000000000815260040161068190611141565b60405180910390fd5b80600160008673ffffffffffffffffffffffffffffffffffffffff1673ffffffffffffffffffffffffffffffffffffffff168152602001908152602001600020819055503373ffffffffffffffffffffffffffffffffffffffff167f492446e274386ccac6404fa4051d8d13aa30976c5144cefa331d1566992a7f9a3485848673ffffffffffffffffffffffffffffffffffffffff166306fdde036040518163ffffffff1660e01b8152600401600060405180830381865afa158015610754573d6000803e3d6000fd5b505050506040513d6000823e3d601f19601f8201168201806040525081019061077d91906112c2565b8773ffffffffffffffffffffffffffffffffffffffff166395d89b416040518163ffffffff1660e01b8152600401600060405180830381865afa1580156107c8573d6000803e3d6000fd5b505050506040513d6000823e3d601f19601f820116820180604052508101906107f191906112c2565b60405161080295949392919061134f565b60405180910390a250505050565b610818610896565b600073ffffffffffffffffffffffffffffffffffffffff168173ffffffffffffffffffffffffffffffffffffffff160361088a5760006040517f1e4fbdf70000000000000000000000000000000000000000000000000000000081526004016108819190610a2a565b60405180910390fd5b6108938161091d565b50565b61089e6109e1565b73ffffffffffffffffffffffffffffffffffffffff166108bc610113565b73ffffffffffffffffffffffffffffffffffffffff161461091b576108df6109e1565b6040517f118cdaa70000000000000000000000000000000000000000000000000000000081526004016109129190610a2a565b60405180910390fd5b565b60008060009054906101000a900473ffffffffffffffffffffffffffffffffffffffff169050816000806101000a81548173ffffffffffffffffffffffffffffffffffffffff021916908373ffffffffffffffffffffffffffffffffffffffff1602179055508173ffffffffffffffffffffffffffffffffffffffff168173ffffffffffffffffffffffffffffffffffffffff167f8be0079c531659141344cd1fd0a4f28419497f9722a3daafe3b4186f6b6457e060405160405180910390a35050565b600033905090565b600073ffffffffffffffffffffffffffffffffffffffff82169050919050565b6000610a14826109e9565b9050919050565b610a2481610a09565b82525050565b6000602082019050610a3f6000830184610a1b565b92915050565b6000604051905090565b600080fd5b600080fd5b610a6281610a09565b8114610a6d57600080fd5b50565b600081359050610a7f81610a59565b92915050565b6000819050919050565b610a9881610a85565b8114610aa357600080fd5b50565b600081359050610ab581610a8f565b92915050565b60008060408385031215610ad257610ad1610a4f565b5b6000610ae085828601610a70565b9250506020610af185828601610aa6565b9150509250929050565b600060208284031215610b1157610b10610a4f565b5b6000610b1f84828501610a70565b91505092915050565b600082825260208201905092915050565b7f546f6b656e20616d6f756e74206d75737420626520677265617465722074686160008201527f6e207a65726f0000000000000000000000000000000000000000000000000000602082015250565b6000610b95602683610b28565b9150610ba082610b39565b604082019050919050565b60006020820190508181036000830152610bc481610b88565b9050919050565b600081519050610bda81610a8f565b92915050565b600060208284031215610bf657610bf5610a4f565b5b6000610c0484828501610bcb565b91505092915050565b7f596f7520646f6e2774206861766520736f206d75636820746f6b656e73000000600082015250565b6000610c43601d83610b28565b9150610c4e82610c0d565b602082019050919050565b60006020820190508181036000830152610c7281610c36565b9050919050565b7f4e487b7100000000000000000000000000000000000000000000000000000000600052601260045260246000fd5b7f4e487b7100000000000000000000000000000000000000000000000000000000600052601160045260246000fd5b6000610ce282610a85565b9150610ced83610a85565b925082610cfd57610cfc610c79565b5b828204905092915050565b6000610d1382610a85565b9150610d1e83610a85565b9250828202610d2c81610a85565b91508282048414831517610d4357610d42610ca8565b5b5092915050565b7f56656e646f7220646f6573206e6f74206861766520656e6f756768204645465560008201527f20746f207361746973667920796f757220726571756573740000000000000000602082015250565b6000610da6603883610b28565b9150610db182610d4a565b604082019050919050565b60006020820190508181036000830152610dd581610d99565b9050919050565b610de581610a85565b82525050565b6000606082019050610e006000830186610a1b565b610e0d6020830185610a1b565b610e1a6040830184610ddc565b949350505050565b60008115159050919050565b610e3781610e22565b8114610e4257600080fd5b50565b600081519050610e5481610e2e565b92915050565b600060208284031215610e7057610e6f610a4f565b5b6000610e7e84828501610e45565b91505092915050565b7f4661696c656420746f207472616e7366657220746f6b656e732066726f6d207560008201527f73657220746f2076656e646f7200000000000000000000000000000000000000602082015250565b6000610ee3602d83610b28565b9150610eee82610e87565b604082019050919050565b60006020820190508181036000830152610f1281610ed6565b9050919050565b600081905092915050565b50565b6000610f34600083610f19565b9150610f3f82610f24565b600082019050919050565b6000610f5582610f27565b9150819050919050565b7f4661696c656420746f2073656e64204645465520746f20746865207573657200600082015250565b6000610f95601f83610b28565b9150610fa082610f5f565b602082019050919050565b60006020820190508181036000830152610fc481610f88565b9050919050565b6000604082019050610fe06000830185610ddc565b610fed6020830184610ddc565b9392505050565b7f53656e64204645465520746f206d696e7420746f6b656e730000000000000000600082015250565b600061102a601883610b28565b915061103582610ff4565b602082019050919050565b600060208201905081810360008301526110598161101d565b9050919050565b7f4e6f7420656e6f75676820746f6b656e7320617661696c61626c650000000000600082015250565b6000611096601b83610b28565b91506110a182611060565b602082019050919050565b600060208201905081810360008301526110c581611089565b9050919050565b60006040820190506110e16000830185610a1b565b6110ee6020830184610ddc565b9392505050565b7f546f6b656e207472616e73666572206661696c65640000000000000000000000600082015250565b600061112b601583610b28565b9150611136826110f5565b602082019050919050565b6000602082019050818103600083015261115a8161111e565b9050919050565b600080fd5b600080fd5b6000601f19601f8301169050919050565b7f4e487b7100000000000000000000000000000000000000000000000000000000600052604160045260246000fd5b6111b48261116b565b810181811067ffffffffffffffff821117156111d3576111d261117c565b5b80604052505050565b60006111e6610a45565b90506111f282826111ab565b919050565b600067ffffffffffffffff8211156112125761121161117c565b5b61121b8261116b565b9050602081019050919050565b60005b8381101561124657808201518184015260208101905061122b565b60008484015250505050565b6000611265611260846111f7565b6111dc565b90508281526020810184848401111561128157611280611166565b5b61128c848285611228565b509392505050565b600082601f8301126112a9576112a8611161565b5b81516112b9848260208601611252565b91505092915050565b6000602082840312156112d8576112d7610a4f565b5b600082015167ffffffffffffffff8111156112f6576112f5610a54565b5b61130284828501611294565b91505092915050565b600081519050919050565b60006113218261130b565b61132b8185610b28565b935061133b818560208601611228565b6113448161116b565b840191505092915050565b600060a0820190506113646000830188610ddc565b6113716020830187610ddc565b61137e6040830186610ddc565b81810360608301526113908185611316565b905081810360808301526113a48184611316565b9050969550505050505056fea264697066735822122010544c847b7ae9d20e233dcf27e9bae60268ac139f3a02f364e69f991c1ce0e364736f6c634300081b0033",
  "linkReferences": {},
  "deployedLinkReferences": {}
}